{
  "contractName": "ReNFT",
  "abi": [
    {
      "inputs": [],
      "stateMutability": "nonpayable",
      "type": "constructor"
    },
    {
      "anonymous": false,
      "inputs": [
        {
          "indexed": true,
          "internalType": "address",
          "name": "owner",
          "type": "address"
        },
        {
          "indexed": true,
          "internalType": "address",
          "name": "approved",
          "type": "address"
        },
        {
          "indexed": true,
          "internalType": "uint256",
          "name": "tokenId",
          "type": "uint256"
        }
      ],
      "name": "Approval",
      "type": "event"
    },
    {
      "anonymous": false,
      "inputs": [
        {
          "indexed": true,
          "internalType": "address",
          "name": "owner",
          "type": "address"
        },
        {
          "indexed": true,
          "internalType": "address",
          "name": "operator",
          "type": "address"
        },
        {
          "indexed": false,
          "internalType": "bool",
          "name": "approved",
          "type": "bool"
        }
      ],
      "name": "ApprovalForAll",
      "type": "event"
    },
    {
      "anonymous": false,
      "inputs": [
        {
          "indexed": true,
          "internalType": "address",
          "name": "previousOwner",
          "type": "address"
        },
        {
          "indexed": true,
          "internalType": "address",
          "name": "newOwner",
          "type": "address"
        }
      ],
      "name": "OwnershipTransferred",
      "type": "event"
    },
    {
      "anonymous": false,
      "inputs": [
        {
          "indexed": true,
          "internalType": "address",
          "name": "from",
          "type": "address"
        },
        {
          "indexed": true,
          "internalType": "address",
          "name": "to",
          "type": "address"
        },
        {
          "indexed": true,
          "internalType": "uint256",
          "name": "tokenId",
          "type": "uint256"
        }
      ],
      "name": "Transfer",
      "type": "event"
    },
    {
      "inputs": [
        {
          "internalType": "address",
          "name": "to",
          "type": "address"
        },
        {
          "internalType": "uint256",
          "name": "tokenId",
          "type": "uint256"
        }
      ],
      "name": "approve",
      "outputs": [],
      "stateMutability": "nonpayable",
      "type": "function"
    },
    {
      "inputs": [
        {
          "internalType": "uint256",
          "name": "",
          "type": "uint256"
        }
      ],
      "name": "attributes",
      "outputs": [
        {
          "internalType": "string",
          "name": "name",
          "type": "string"
        },
        {
          "internalType": "string",
          "name": "image",
          "type": "string"
        },
        {
          "internalType": "uint256",
          "name": "exptime",
          "type": "uint256"
        },
        {
          "internalType": "string",
          "name": "colorPrimary",
          "type": "string"
        },
        {
          "internalType": "string",
          "name": "colorSecondary",
          "type": "string"
        },
        {
          "internalType": "uint256",
          "name": "mintTime",
          "type": "uint256"
        },
        {
          "internalType": "string",
          "name": "description",
          "type": "string"
        }
      ],
      "stateMutability": "view",
      "type": "function",
      "constant": true
    },
    {
      "inputs": [
        {
          "internalType": "address",
          "name": "owner",
          "type": "address"
        }
      ],
      "name": "balanceOf",
      "outputs": [
        {
          "internalType": "uint256",
          "name": "",
          "type": "uint256"
        }
      ],
      "stateMutability": "view",
      "type": "function",
      "constant": true
    },
    {
      "inputs": [
        {
          "internalType": "uint256",
          "name": "tokenId",
          "type": "uint256"
        }
      ],
      "name": "getApproved",
      "outputs": [
        {
          "internalType": "address",
          "name": "",
          "type": "address"
        }
      ],
      "stateMutability": "view",
      "type": "function",
      "constant": true
    },
    {
      "inputs": [
        {
          "internalType": "address",
          "name": "owner",
          "type": "address"
        },
        {
          "internalType": "address",
          "name": "operator",
          "type": "address"
        }
      ],
      "name": "isApprovedForAll",
      "outputs": [
        {
          "internalType": "bool",
          "name": "",
          "type": "bool"
        }
      ],
      "stateMutability": "view",
      "type": "function",
      "constant": true
    },
    {
      "inputs": [],
      "name": "name",
      "outputs": [
        {
          "internalType": "string",
          "name": "",
          "type": "string"
        }
      ],
      "stateMutability": "view",
      "type": "function",
      "constant": true
    },
    {
      "inputs": [],
      "name": "owner",
      "outputs": [
        {
          "internalType": "address",
          "name": "",
          "type": "address"
        }
      ],
      "stateMutability": "view",
      "type": "function",
      "constant": true
    },
    {
      "inputs": [
        {
          "internalType": "uint256",
          "name": "tokenId",
          "type": "uint256"
        }
      ],
      "name": "ownerOf",
      "outputs": [
        {
          "internalType": "address",
          "name": "",
          "type": "address"
        }
      ],
      "stateMutability": "view",
      "type": "function",
      "constant": true
    },
    {
      "inputs": [],
      "name": "renounceOwnership",
      "outputs": [],
      "stateMutability": "nonpayable",
      "type": "function"
    },
    {
      "inputs": [
        {
          "internalType": "address",
          "name": "from",
          "type": "address"
        },
        {
          "internalType": "address",
          "name": "to",
          "type": "address"
        },
        {
          "internalType": "uint256",
          "name": "tokenId",
          "type": "uint256"
        }
      ],
      "name": "safeTransferFrom",
      "outputs": [],
      "stateMutability": "nonpayable",
      "type": "function"
    },
    {
      "inputs": [
        {
          "internalType": "address",
          "name": "from",
          "type": "address"
        },
        {
          "internalType": "address",
          "name": "to",
          "type": "address"
        },
        {
          "internalType": "uint256",
          "name": "tokenId",
          "type": "uint256"
        },
        {
          "internalType": "bytes",
          "name": "_data",
          "type": "bytes"
        }
      ],
      "name": "safeTransferFrom",
      "outputs": [],
      "stateMutability": "nonpayable",
      "type": "function"
    },
    {
      "inputs": [
        {
          "internalType": "address",
          "name": "operator",
          "type": "address"
        },
        {
          "internalType": "bool",
          "name": "approved",
          "type": "bool"
        }
      ],
      "name": "setApprovalForAll",
      "outputs": [],
      "stateMutability": "nonpayable",
      "type": "function"
    },
    {
      "inputs": [],
      "name": "symbol",
      "outputs": [
        {
          "internalType": "string",
          "name": "",
          "type": "string"
        }
      ],
      "stateMutability": "view",
      "type": "function",
      "constant": true
    },
    {
      "inputs": [
        {
          "internalType": "uint256",
          "name": "index",
          "type": "uint256"
        }
      ],
      "name": "tokenByIndex",
      "outputs": [
        {
          "internalType": "uint256",
          "name": "",
          "type": "uint256"
        }
      ],
      "stateMutability": "view",
      "type": "function",
      "constant": true
    },
    {
      "inputs": [
        {
          "internalType": "address",
          "name": "owner",
          "type": "address"
        },
        {
          "internalType": "uint256",
          "name": "index",
          "type": "uint256"
        }
      ],
      "name": "tokenOfOwnerByIndex",
      "outputs": [
        {
          "internalType": "uint256",
          "name": "",
          "type": "uint256"
        }
      ],
      "stateMutability": "view",
      "type": "function",
      "constant": true
    },
    {
      "inputs": [],
      "name": "totalSupply",
      "outputs": [
        {
          "internalType": "uint256",
          "name": "",
          "type": "uint256"
        }
      ],
      "stateMutability": "view",
      "type": "function",
      "constant": true
    },
    {
      "inputs": [
        {
          "internalType": "address",
          "name": "from",
          "type": "address"
        },
        {
          "internalType": "address",
          "name": "to",
          "type": "address"
        },
        {
          "internalType": "uint256",
          "name": "tokenId",
          "type": "uint256"
        }
      ],
      "name": "transferFrom",
      "outputs": [],
      "stateMutability": "nonpayable",
      "type": "function"
    },
    {
      "inputs": [
        {
          "internalType": "address",
          "name": "newOwner",
          "type": "address"
        }
      ],
      "name": "transferOwnership",
      "outputs": [],
      "stateMutability": "nonpayable",
      "type": "function"
    },
    {
      "inputs": [
        {
          "internalType": "uint256",
          "name": "tokenId",
          "type": "uint256"
        }
      ],
      "name": "getAge",
      "outputs": [
        {
          "internalType": "uint256",
          "name": "",
          "type": "uint256"
        }
      ],
      "stateMutability": "view",
      "type": "function",
      "constant": true
    },
    {
      "inputs": [
        {
          "internalType": "uint256",
          "name": "tokenId",
          "type": "uint256"
        },
        {
          "internalType": "string",
          "name": "_cPrimary",
          "type": "string"
        }
      ],
      "name": "setcPrimary",
      "outputs": [],
      "stateMutability": "nonpayable",
      "type": "function"
    },
    {
      "inputs": [
        {
          "internalType": "uint256",
          "name": "tokenId",
          "type": "uint256"
        },
        {
          "internalType": "string",
          "name": "_cSecondary",
          "type": "string"
        }
      ],
      "name": "setcSecondary",
      "outputs": [],
      "stateMutability": "nonpayable",
      "type": "function"
    },
    {
      "inputs": [
        {
          "internalType": "bytes4",
          "name": "interfaceId",
          "type": "bytes4"
        }
      ],
      "name": "supportsInterface",
      "outputs": [
        {
          "internalType": "bool",
          "name": "",
          "type": "bool"
        }
      ],
      "stateMutability": "view",
      "type": "function",
      "constant": true
    },
    {
      "inputs": [
        {
          "internalType": "string",
          "name": "_name",
          "type": "string"
        },
        {
          "internalType": "string",
          "name": "_image",
          "type": "string"
        },
        {
          "internalType": "uint256",
          "name": "_exptime",
          "type": "uint256"
        },
        {
          "internalType": "string",
          "name": "_cPrimary",
          "type": "string"
        },
        {
          "internalType": "string",
          "name": "_cSecondary",
          "type": "string"
        },
        {
          "internalType": "string",
          "name": "_desc",
          "type": "string"
        }
      ],
      "name": "mint",
      "outputs": [],
      "stateMutability": "nonpayable",
      "type": "function"
    },
    {
      "inputs": [
        {
          "internalType": "uint256",
          "name": "tokenId",
          "type": "uint256"
        },
        {
          "internalType": "string",
          "name": "_image",
          "type": "string"
        }
      ],
      "name": "setImg",
      "outputs": [],
      "stateMutability": "nonpayable",
      "type": "function"
    },
    {
      "inputs": [
        {
          "internalType": "uint256",
          "name": "tokenId",
          "type": "uint256"
        }
      ],
      "name": "tokenURI",
      "outputs": [
        {
          "internalType": "string",
          "name": "",
          "type": "string"
        }
      ],
      "stateMutability": "view",
      "type": "function",
      "constant": true
    },
    {
      "inputs": [
        {
          "internalType": "uint256",
          "name": "tokenId",
          "type": "uint256"
        }
      ],
      "name": "isExpired",
      "outputs": [
        {
          "internalType": "bool",
          "name": "",
          "type": "bool"
        }
      ],
      "stateMutability": "view",
      "type": "function",
      "constant": true
    }
  ],
  "bytecode": "0x60806040523480156200001157600080fd5b506040518060400160405280600581526020017f52654e46540000000000000000000000000000000000000000000000000000008152506040518060400160405280600581526020017f52454e4654000000000000000000000000000000000000000000000000000000815250816000908051906020019062000096929190620001a6565b508060019080519060200190620000af929190620001a6565b505050620000d2620000c6620000d860201b60201c565b620000e060201b60201c565b620002bb565b600033905090565b6000600a60009054906101000a900473ffffffffffffffffffffffffffffffffffffffff16905081600a60006101000a81548173ffffffffffffffffffffffffffffffffffffffff021916908373ffffffffffffffffffffffffffffffffffffffff1602179055508173ffffffffffffffffffffffffffffffffffffffff168173ffffffffffffffffffffffffffffffffffffffff167f8be0079c531659141344cd1fd0a4f28419497f9722a3daafe3b4186f6b6457e060405160405180910390a35050565b828054620001b49062000285565b90600052602060002090601f016020900481019282620001d8576000855562000224565b82601f10620001f357805160ff191683800117855562000224565b8280016001018555821562000224579182015b828111156200022357825182559160200191906001019062000206565b5b50905062000233919062000237565b5090565b5b808211156200025257600081600090555060010162000238565b5090565b7f4e487b7100000000000000000000000000000000000000000000000000000000600052602260045260246000fd5b600060028204905060018216806200029e57607f821691505b60208210811415620002b557620002b462000256565b5b50919050565b6147d080620002cb6000396000f3fe608060405234801561001057600080fd5b506004361061018e5760003560e01c8063715018a6116100de578063d05dcc6a11610097578063e71ee27611610071578063e71ee276146104bf578063e985e9c5146104db578063eba7e7bb1461050b578063f2fde38b146105275761018e565b8063d05dcc6a1461043d578063d6b3447a14610473578063d9548e531461048f5761018e565b8063715018a61461038f5780638da5cb5b1461039957806395d89b41146103b7578063a22cb465146103d5578063b88d4fde146103f1578063c87b56dd1461040d5761018e565b806323b872dd1161014b5780634f6ccce7116101255780634f6ccce7146102e35780636352211e146103135780636a38a6c61461034357806370a082311461035f5761018e565b806323b872dd1461027b5780632f745c591461029757806342842e0e146102c75761018e565b806301ffc9a71461019357806306fdde03146101c3578063081812fc146101e1578063095ea7b3146102115780630e37008a1461022d57806318160ddd1461025d575b600080fd5b6101ad60048036038101906101a89190612c8f565b610543565b6040516101ba9190612cd7565b60405180910390f35b6101cb610555565b6040516101d89190612d8b565b60405180910390f35b6101fb60048036038101906101f69190612de3565b6105e7565b6040516102089190612e51565b60405180910390f35b61022b60048036038101906102269190612e98565b61066c565b005b61024760048036038101906102429190612de3565b610784565b6040516102549190612ee7565b60405180910390f35b610265610847565b6040516102729190612ee7565b60405180910390f35b61029560048036038101906102909190612f02565b610854565b005b6102b160048036038101906102ac9190612e98565b6108b4565b6040516102be9190612ee7565b60405180910390f35b6102e160048036038101906102dc9190612f02565b610959565b005b6102fd60048036038101906102f89190612de3565b610979565b60405161030a9190612ee7565b60405180910390f35b61032d60048036038101906103289190612de3565b6109ea565b60405161033a9190612e51565b60405180910390f35b61035d6004803603810190610358919061308a565b610a9c565b005b610379600480360381019061037491906130e6565b610bac565b6040516103869190612ee7565b60405180910390f35b610397610c64565b005b6103a1610cec565b6040516103ae9190612e51565b60405180910390f35b6103bf610d16565b6040516103cc9190612d8b565b60405180910390f35b6103ef60048036038101906103ea919061313f565b610da8565b005b61040b60048036038101906104069190613220565b610dbe565b005b61042760048036038101906104229190612de3565b610e20565b6040516104349190612d8b565b60405180910390f35b61045760048036038101906104529190612de3565b610f50565b60405161046a97969594939291906132a3565b60405180910390f35b61048d6004803603810190610488919061308a565b61123a565b005b6104a960048036038101906104a49190612de3565b61134a565b6040516104b69190612cd7565b60405180910390f35b6104d960048036038101906104d49190613335565b6113e6565b005b6104f560048036038101906104f0919061344e565b6114ff565b6040516105029190612cd7565b60405180910390f35b6105256004803603810190610520919061308a565b611593565b005b610541600480360381019061053c91906130e6565b6116a3565b005b600061054e8261179b565b9050919050565b606060008054610564906134bd565b80601f0160208091040260200160405190810160405280929190818152602001828054610590906134bd565b80156105dd5780601f106105b2576101008083540402835291602001916105dd565b820191906000526020600020905b8154815290600101906020018083116105c057829003601f168201915b5050505050905090565b60006105f282611815565b610631576040517f08c379a000000000000000000000000000000000000000000000000000000000815260040161062890613561565b60405180910390fd5b6004600083815260200190815260200160002060009054906101000a900473ffffffffffffffffffffffffffffffffffffffff169050919050565b6000610677826109ea565b90508073ffffffffffffffffffffffffffffffffffffffff168373ffffffffffffffffffffffffffffffffffffffff1614156106e8576040517f08c379a00000000000000000000000000000000000000000000000000000000081526004016106df906135f3565b60405180910390fd5b8073ffffffffffffffffffffffffffffffffffffffff16610707611881565b73ffffffffffffffffffffffffffffffffffffffff161480610736575061073581610730611881565b6114ff565b5b610775576040517f08c379a000000000000000000000000000000000000000000000000000000000815260040161076c90613685565b60405180910390fd5b61077f8383611889565b505050565b600061078f82611815565b6107ce576040517f08c379a00000000000000000000000000000000000000000000000000000000081526004016107c5906136f1565b60405180910390fd5b6107d78261134a565b15610817576040517f08c379a000000000000000000000000000000000000000000000000000000000815260040161080e9061375d565b60405180910390fd5b610840600c6000848152602001908152602001600020600501544261194290919063ffffffff16565b9050919050565b6000600880549050905090565b61086561085f611881565b82611958565b6108a4576040517f08c379a000000000000000000000000000000000000000000000000000000000815260040161089b906137ef565b60405180910390fd5b6108af838383611a36565b505050565b60006108bf83610bac565b8210610900576040517f08c379a00000000000000000000000000000000000000000000000000000000081526004016108f790613881565b60405180910390fd5b600660008473ffffffffffffffffffffffffffffffffffffffff1673ffffffffffffffffffffffffffffffffffffffff168152602001908152602001600020600083815260200190815260200160002054905092915050565b61097483838360405180602001604052806000815250610dbe565b505050565b6000610983610847565b82106109c4576040517f08c379a00000000000000000000000000000000000000000000000000000000081526004016109bb90613913565b60405180910390fd5b600882815481106109d8576109d7613933565b5b90600052602060002001549050919050565b6000806002600084815260200190815260200160002060009054906101000a900473ffffffffffffffffffffffffffffffffffffffff169050600073ffffffffffffffffffffffffffffffffffffffff168173ffffffffffffffffffffffffffffffffffffffff161415610a93576040517f08c379a0000000000000000000000000000000000000000000000000000000008152600401610a8a906139d4565b60405180910390fd5b80915050919050565b610aa582611815565b610ae4576040517f08c379a0000000000000000000000000000000000000000000000000000000008152600401610adb906136f1565b60405180910390fd5b610af5610aef611881565b83611958565b610b34576040517f08c379a0000000000000000000000000000000000000000000000000000000008152600401610b2b906137ef565b60405180910390fd5b610b3d8261134a565b15610b7d576040517f08c379a0000000000000000000000000000000000000000000000000000000008152600401610b749061375d565b60405180910390fd5b80600c60008481526020019081526020016000206003019080519060200190610ba7929190612b80565b505050565b60008073ffffffffffffffffffffffffffffffffffffffff168273ffffffffffffffffffffffffffffffffffffffff161415610c1d576040517f08c379a0000000000000000000000000000000000000000000000000000000008152600401610c1490613a66565b60405180910390fd5b600360008373ffffffffffffffffffffffffffffffffffffffff1673ffffffffffffffffffffffffffffffffffffffff168152602001908152602001600020549050919050565b610c6c611881565b73ffffffffffffffffffffffffffffffffffffffff16610c8a610cec565b73ffffffffffffffffffffffffffffffffffffffff1614610ce0576040517f08c379a0000000000000000000000000000000000000000000000000000000008152600401610cd790613ad2565b60405180910390fd5b610cea6000611c92565b565b6000600a60009054906101000a900473ffffffffffffffffffffffffffffffffffffffff16905090565b606060018054610d25906134bd565b80601f0160208091040260200160405190810160405280929190818152602001828054610d51906134bd565b8015610d9e5780601f10610d7357610100808354040283529160200191610d9e565b820191906000526020600020905b815481529060010190602001808311610d8157829003601f168201915b5050505050905090565b610dba610db3611881565b8383611d58565b5050565b610dcf610dc9611881565b83611958565b610e0e576040517f08c379a0000000000000000000000000000000000000000000000000000000008152600401610e05906137ef565b60405180910390fd5b610e1a84848484611ec5565b50505050565b6060610e2b8261134a565b15610e6b576040517f08c379a0000000000000000000000000000000000000000000000000000000008152600401610e629061375d565b60405180910390fd5b6000610f26600c6000858152602001908152602001600020600001600c6000868152602001908152602001600020600101600c6000878152602001908152602001600020600601600c6000888152602001908152602001600020600301600c6000898152602001908152602001600020600401610efd600c60008b815260200190815260200160002060020154611f21565b604051602001610f1296959493929190613ee0565b6040516020818303038152906040526120aa565b905080604051602001610f399190614008565b604051602081830303815290604052915050919050565b600c602052806000526040600020600091509050806000018054610f73906134bd565b80601f0160208091040260200160405190810160405280929190818152602001828054610f9f906134bd565b8015610fec5780601f10610fc157610100808354040283529160200191610fec565b820191906000526020600020905b815481529060010190602001808311610fcf57829003601f168201915b505050505090806001018054611001906134bd565b80601f016020809104026020016040519081016040528092919081815260200182805461102d906134bd565b801561107a5780601f1061104f5761010080835404028352916020019161107a565b820191906000526020600020905b81548152906001019060200180831161105d57829003601f168201915b505050505090806002015490806003018054611095906134bd565b80601f01602080910402602001604051908101604052809291908181526020018280546110c1906134bd565b801561110e5780601f106110e35761010080835404028352916020019161110e565b820191906000526020600020905b8154815290600101906020018083116110f157829003601f168201915b505050505090806004018054611123906134bd565b80601f016020809104026020016040519081016040528092919081815260200182805461114f906134bd565b801561119c5780601f106111715761010080835404028352916020019161119c565b820191906000526020600020905b81548152906001019060200180831161117f57829003601f168201915b5050505050908060050154908060060180546111b7906134bd565b80601f01602080910402602001604051908101604052809291908181526020018280546111e3906134bd565b80156112305780601f1061120557610100808354040283529160200191611230565b820191906000526020600020905b81548152906001019060200180831161121357829003601f168201915b5050505050905087565b61124382611815565b611282576040517f08c379a0000000000000000000000000000000000000000000000000000000008152600401611279906136f1565b60405180910390fd5b61129361128d611881565b83611958565b6112d2576040517f08c379a00000000000000000000000000000000000000000000000000000000081526004016112c9906137ef565b60405180910390fd5b6112db8261134a565b1561131b576040517f08c379a00000000000000000000000000000000000000000000000000000000081526004016113129061375d565b60405180910390fd5b80600c60008481526020019081526020016000206004019080519060200190611345929190612b80565b505050565b600061135582611815565b611394576040517f08c379a000000000000000000000000000000000000000000000000000000000815260040161138b906136f1565b60405180910390fd5b42600c60008481526020019081526020016000206002015411806113ce57506000600c600084815260200190815260200160002060020154145b156113dc57600090506113e1565b600190505b919050565b600060016113f2610847565b6113fc9190614059565b90506114083382612223565b6040518060e0016040528088815260200187815260200186815260200185815260200184815260200142815260200183815250600c6000838152602001908152602001600020600082015181600001908051906020019061146a929190612b80565b506020820151816001019080519060200190611487929190612b80565b506040820151816002015560608201518160030190805190602001906114ae929190612b80565b5060808201518160040190805190602001906114cb929190612b80565b5060a0820151816005015560c08201518160060190805190602001906114f2929190612b80565b5090505050505050505050565b6000600560008473ffffffffffffffffffffffffffffffffffffffff1673ffffffffffffffffffffffffffffffffffffffff16815260200190815260200160002060008373ffffffffffffffffffffffffffffffffffffffff1673ffffffffffffffffffffffffffffffffffffffff16815260200190815260200160002060009054906101000a900460ff16905092915050565b6115a461159e611881565b83611958565b6115e3576040517f08c379a00000000000000000000000000000000000000000000000000000000081526004016115da906137ef565b60405180910390fd5b6115ec82611815565b61162b576040517f08c379a0000000000000000000000000000000000000000000000000000000008152600401611622906136f1565b60405180910390fd5b6116348261134a565b15611674576040517f08c379a000000000000000000000000000000000000000000000000000000000815260040161166b9061375d565b60405180910390fd5b80600c6000848152602001908152602001600020600101908051906020019061169e929190612b80565b505050565b6116ab611881565b73ffffffffffffffffffffffffffffffffffffffff166116c9610cec565b73ffffffffffffffffffffffffffffffffffffffff161461171f576040517f08c379a000000000000000000000000000000000000000000000000000000000815260040161171690613ad2565b60405180910390fd5b600073ffffffffffffffffffffffffffffffffffffffff168173ffffffffffffffffffffffffffffffffffffffff16141561178f576040517f08c379a000000000000000000000000000000000000000000000000000000000815260040161178690614121565b60405180910390fd5b61179881611c92565b50565b60007f780e9d63000000000000000000000000000000000000000000000000000000007bffffffffffffffffffffffffffffffffffffffffffffffffffffffff1916827bffffffffffffffffffffffffffffffffffffffffffffffffffffffff1916148061180e575061180d82612241565b5b9050919050565b60008073ffffffffffffffffffffffffffffffffffffffff166002600084815260200190815260200160002060009054906101000a900473ffffffffffffffffffffffffffffffffffffffff1673ffffffffffffffffffffffffffffffffffffffff1614159050919050565b600033905090565b816004600083815260200190815260200160002060006101000a81548173ffffffffffffffffffffffffffffffffffffffff021916908373ffffffffffffffffffffffffffffffffffffffff160217905550808273ffffffffffffffffffffffffffffffffffffffff166118fc836109ea565b73ffffffffffffffffffffffffffffffffffffffff167f8c5be1e5ebec7d5bd14f71427d1e84f3dd0314c0f7b2291e5b200ac8c7c3b92560405160405180910390a45050565b600081836119509190614141565b905092915050565b600061196382611815565b6119a2576040517f08c379a0000000000000000000000000000000000000000000000000000000008152600401611999906141e7565b60405180910390fd5b60006119ad836109ea565b90508073ffffffffffffffffffffffffffffffffffffffff168473ffffffffffffffffffffffffffffffffffffffff161480611a1c57508373ffffffffffffffffffffffffffffffffffffffff16611a04846105e7565b73ffffffffffffffffffffffffffffffffffffffff16145b80611a2d5750611a2c81856114ff565b5b91505092915050565b8273ffffffffffffffffffffffffffffffffffffffff16611a56826109ea565b73ffffffffffffffffffffffffffffffffffffffff1614611aac576040517f08c379a0000000000000000000000000000000000000000000000000000000008152600401611aa390614279565b60405180910390fd5b600073ffffffffffffffffffffffffffffffffffffffff168273ffffffffffffffffffffffffffffffffffffffff161415611b1c576040517f08c379a0000000000000000000000000000000000000000000000000000000008152600401611b139061430b565b60405180910390fd5b611b27838383612323565b611b32600082611889565b6001600360008573ffffffffffffffffffffffffffffffffffffffff1673ffffffffffffffffffffffffffffffffffffffff1681526020019081526020016000206000828254611b829190614141565b925050819055506001600360008473ffffffffffffffffffffffffffffffffffffffff1673ffffffffffffffffffffffffffffffffffffffff1681526020019081526020016000206000828254611bd99190614059565b92505081905550816002600083815260200190815260200160002060006101000a81548173ffffffffffffffffffffffffffffffffffffffff021916908373ffffffffffffffffffffffffffffffffffffffff160217905550808273ffffffffffffffffffffffffffffffffffffffff168473ffffffffffffffffffffffffffffffffffffffff167fddf252ad1be2c89b69c2b068fc378daa952ba7f163c4a11628f55a4df523b3ef60405160405180910390a4505050565b6000600a60009054906101000a900473ffffffffffffffffffffffffffffffffffffffff16905081600a60006101000a81548173ffffffffffffffffffffffffffffffffffffffff021916908373ffffffffffffffffffffffffffffffffffffffff1602179055508173ffffffffffffffffffffffffffffffffffffffff168173ffffffffffffffffffffffffffffffffffffffff167f8be0079c531659141344cd1fd0a4f28419497f9722a3daafe3b4186f6b6457e060405160405180910390a35050565b8173ffffffffffffffffffffffffffffffffffffffff168373ffffffffffffffffffffffffffffffffffffffff161415611dc7576040517f08c379a0000000000000000000000000000000000000000000000000000000008152600401611dbe90614377565b60405180910390fd5b80600560008573ffffffffffffffffffffffffffffffffffffffff1673ffffffffffffffffffffffffffffffffffffffff16815260200190815260200160002060008473ffffffffffffffffffffffffffffffffffffffff1673ffffffffffffffffffffffffffffffffffffffff16815260200190815260200160002060006101000a81548160ff0219169083151502179055508173ffffffffffffffffffffffffffffffffffffffff168373ffffffffffffffffffffffffffffffffffffffff167f17307eab39ab6107e8899845ad3d59bd9653f200f220920489ca2b5937696c3183604051611eb89190612cd7565b60405180910390a3505050565b611ed0848484611a36565b611edc84848484612333565b611f1b576040517f08c379a0000000000000000000000000000000000000000000000000000000008152600401611f1290614409565b60405180910390fd5b50505050565b60606000821415611f69576040518060400160405280600181526020017f300000000000000000000000000000000000000000000000000000000000000081525090506120a5565b600082905060005b60008214611f9b578080611f8490614429565b915050600a82611f9491906144a1565b9150611f71565b60008167ffffffffffffffff811115611fb757611fb6612f5f565b5b6040519080825280601f01601f191660200182016040528015611fe95781602001600182028036833780820191505090505b50905060008290505b6000861461209d576001816120079190614141565b90506000600a808861201991906144a1565b61202391906144d2565b8761202e9190614141565b603061203a9190614539565b905060008160f81b90508084848151811061205857612057613933565b5b60200101907effffffffffffffffffffffffffffffffffffffffffffffffffffffffffffff1916908160001a905350600a8861209491906144a1565b97505050611ff2565b819450505050505b919050565b60606000825114156120cd5760405180602001604052806000815250905061221e565b600060405180606001604052806040815260200161475b60409139905060006003600285516120fc9190614059565b61210691906144a1565b600461211291906144d2565b905060006020826121239190614059565b67ffffffffffffffff81111561213c5761213b612f5f565b5b6040519080825280601f01601f19166020018201604052801561216e5781602001600182028036833780820191505090505b509050818152600183018586518101602084015b818310156121dd576003830192508251603f8160121c168501518253600182019150603f81600c1c168501518253600182019150603f8160061c168501518253600182019150603f8116850151825360018201915050612182565b6003895106600181146121f7576002811461220757612212565b613d3d60f01b6002830352612212565b603d60f81b60018303525b50505050508093505050505b919050565b61223d8282604051806020016040528060008152506124bb565b5050565b60007f80ac58cd000000000000000000000000000000000000000000000000000000007bffffffffffffffffffffffffffffffffffffffffffffffffffffffff1916827bffffffffffffffffffffffffffffffffffffffffffffffffffffffff1916148061230c57507f5b5e139f000000000000000000000000000000000000000000000000000000007bffffffffffffffffffffffffffffffffffffffffffffffffffffffff1916827bffffffffffffffffffffffffffffffffffffffffffffffffffffffff1916145b8061231c575061231b82612516565b5b9050919050565b61232e838383612580565b505050565b60006123548473ffffffffffffffffffffffffffffffffffffffff16612694565b156124ae578373ffffffffffffffffffffffffffffffffffffffff1663150b7a0261237d611881565b8786866040518563ffffffff1660e01b815260040161239f94939291906145c5565b6020604051808303816000875af19250505080156123db57506040513d601f19601f820116820180604052508101906123d89190614626565b60015b61245e573d806000811461240b576040519150601f19603f3d011682016040523d82523d6000602084013e612410565b606091505b50600081511415612456576040517f08c379a000000000000000000000000000000000000000000000000000000000815260040161244d90614409565b60405180910390fd5b805181602001fd5b63150b7a0260e01b7bffffffffffffffffffffffffffffffffffffffffffffffffffffffff1916817bffffffffffffffffffffffffffffffffffffffffffffffffffffffff1916149150506124b3565b600190505b949350505050565b6124c583836126a7565b6124d26000848484612333565b612511576040517f08c379a000000000000000000000000000000000000000000000000000000000815260040161250890614409565b60405180910390fd5b505050565b60007f01ffc9a7000000000000000000000000000000000000000000000000000000007bffffffffffffffffffffffffffffffffffffffffffffffffffffffff1916827bffffffffffffffffffffffffffffffffffffffffffffffffffffffff1916149050919050565b61258b838383612875565b600073ffffffffffffffffffffffffffffffffffffffff168373ffffffffffffffffffffffffffffffffffffffff1614156125ce576125c98161287a565b61260d565b8173ffffffffffffffffffffffffffffffffffffffff168373ffffffffffffffffffffffffffffffffffffffff161461260c5761260b83826128c3565b5b5b600073ffffffffffffffffffffffffffffffffffffffff168273ffffffffffffffffffffffffffffffffffffffff1614156126505761264b81612a30565b61268f565b8273ffffffffffffffffffffffffffffffffffffffff168273ffffffffffffffffffffffffffffffffffffffff161461268e5761268d8282612b01565b5b5b505050565b600080823b905060008111915050919050565b600073ffffffffffffffffffffffffffffffffffffffff168273ffffffffffffffffffffffffffffffffffffffff161415612717576040517f08c379a000000000000000000000000000000000000000000000000000000000815260040161270e9061469f565b60405180910390fd5b61272081611815565b15612760576040517f08c379a00000000000000000000000000000000000000000000000000000000081526004016127579061470b565b60405180910390fd5b61276c60008383612323565b6001600360008473ffffffffffffffffffffffffffffffffffffffff1673ffffffffffffffffffffffffffffffffffffffff16815260200190815260200160002060008282546127bc9190614059565b92505081905550816002600083815260200190815260200160002060006101000a81548173ffffffffffffffffffffffffffffffffffffffff021916908373ffffffffffffffffffffffffffffffffffffffff160217905550808273ffffffffffffffffffffffffffffffffffffffff16600073ffffffffffffffffffffffffffffffffffffffff167fddf252ad1be2c89b69c2b068fc378daa952ba7f163c4a11628f55a4df523b3ef60405160405180910390a45050565b505050565b6008805490506009600083815260200190815260200160002081905550600881908060018154018082558091505060019003906000526020600020016000909190919091505550565b600060016128d084610bac565b6128da9190614141565b90506000600760008481526020019081526020016000205490508181146129bf576000600660008673ffffffffffffffffffffffffffffffffffffffff1673ffffffffffffffffffffffffffffffffffffffff168152602001908152602001600020600084815260200190815260200160002054905080600660008773ffffffffffffffffffffffffffffffffffffffff1673ffffffffffffffffffffffffffffffffffffffff168152602001908152602001600020600084815260200190815260200160002081905550816007600083815260200190815260200160002081905550505b6007600084815260200190815260200160002060009055600660008573ffffffffffffffffffffffffffffffffffffffff1673ffffffffffffffffffffffffffffffffffffffff16815260200190815260200160002060008381526020019081526020016000206000905550505050565b60006001600880549050612a449190614141565b9050600060096000848152602001908152602001600020549050600060088381548110612a7457612a73613933565b5b906000526020600020015490508060088381548110612a9657612a95613933565b5b906000526020600020018190555081600960008381526020019081526020016000208190555060096000858152602001908152602001600020600090556008805480612ae557612ae461472b565b5b6001900381819060005260206000200160009055905550505050565b6000612b0c83610bac565b905081600660008573ffffffffffffffffffffffffffffffffffffffff1673ffffffffffffffffffffffffffffffffffffffff168152602001908152602001600020600083815260200190815260200160002081905550806007600084815260200190815260200160002081905550505050565b828054612b8c906134bd565b90600052602060002090601f016020900481019282612bae5760008555612bf5565b82601f10612bc757805160ff1916838001178555612bf5565b82800160010185558215612bf5579182015b82811115612bf4578251825591602001919060010190612bd9565b5b509050612c029190612c06565b5090565b5b80821115612c1f576000816000905550600101612c07565b5090565b6000604051905090565b600080fd5b600080fd5b60007fffffffff0000000000000000000000000000000000000000000000000000000082169050919050565b612c6c81612c37565b8114612c7757600080fd5b50565b600081359050612c8981612c63565b92915050565b600060208284031215612ca557612ca4612c2d565b5b6000612cb384828501612c7a565b91505092915050565b60008115159050919050565b612cd181612cbc565b82525050565b6000602082019050612cec6000830184612cc8565b92915050565b600081519050919050565b600082825260208201905092915050565b60005b83811015612d2c578082015181840152602081019050612d11565b83811115612d3b576000848401525b50505050565b6000601f19601f8301169050919050565b6000612d5d82612cf2565b612d678185612cfd565b9350612d77818560208601612d0e565b612d8081612d41565b840191505092915050565b60006020820190508181036000830152612da58184612d52565b905092915050565b6000819050919050565b612dc081612dad565b8114612dcb57600080fd5b50565b600081359050612ddd81612db7565b92915050565b600060208284031215612df957612df8612c2d565b5b6000612e0784828501612dce565b91505092915050565b600073ffffffffffffffffffffffffffffffffffffffff82169050919050565b6000612e3b82612e10565b9050919050565b612e4b81612e30565b82525050565b6000602082019050612e666000830184612e42565b92915050565b612e7581612e30565b8114612e8057600080fd5b50565b600081359050612e9281612e6c565b92915050565b60008060408385031215612eaf57612eae612c2d565b5b6000612ebd85828601612e83565b9250506020612ece85828601612dce565b9150509250929050565b612ee181612dad565b82525050565b6000602082019050612efc6000830184612ed8565b92915050565b600080600060608486031215612f1b57612f1a612c2d565b5b6000612f2986828701612e83565b9350506020612f3a86828701612e83565b9250506040612f4b86828701612dce565b9150509250925092565b600080fd5b600080fd5b7f4e487b7100000000000000000000000000000000000000000000000000000000600052604160045260246000fd5b612f9782612d41565b810181811067ffffffffffffffff82111715612fb657612fb5612f5f565b5b80604052505050565b6000612fc9612c23565b9050612fd58282612f8e565b919050565b600067ffffffffffffffff821115612ff557612ff4612f5f565b5b612ffe82612d41565b9050602081019050919050565b82818337600083830152505050565b600061302d61302884612fda565b612fbf565b90508281526020810184848401111561304957613048612f5a565b5b61305484828561300b565b509392505050565b600082601f83011261307157613070612f55565b5b813561308184826020860161301a565b91505092915050565b600080604083850312156130a1576130a0612c2d565b5b60006130af85828601612dce565b925050602083013567ffffffffffffffff8111156130d0576130cf612c32565b5b6130dc8582860161305c565b9150509250929050565b6000602082840312156130fc576130fb612c2d565b5b600061310a84828501612e83565b91505092915050565b61311c81612cbc565b811461312757600080fd5b50565b60008135905061313981613113565b92915050565b6000806040838503121561315657613155612c2d565b5b600061316485828601612e83565b92505060206131758582860161312a565b9150509250929050565b600067ffffffffffffffff82111561319a57613199612f5f565b5b6131a382612d41565b9050602081019050919050565b60006131c36131be8461317f565b612fbf565b9050828152602081018484840111156131df576131de612f5a565b5b6131ea84828561300b565b509392505050565b600082601f83011261320757613206612f55565b5b81356132178482602086016131b0565b91505092915050565b6000806000806080858703121561323a57613239612c2d565b5b600061324887828801612e83565b945050602061325987828801612e83565b935050604061326a87828801612dce565b925050606085013567ffffffffffffffff81111561328b5761328a612c32565b5b613297878288016131f2565b91505092959194509250565b600060e08201905081810360008301526132bd818a612d52565b905081810360208301526132d18189612d52565b90506132e06040830188612ed8565b81810360608301526132f28187612d52565b905081810360808301526133068186612d52565b905061331560a0830185612ed8565b81810360c08301526133278184612d52565b905098975050505050505050565b60008060008060008060c0878903121561335257613351612c2d565b5b600087013567ffffffffffffffff8111156133705761336f612c32565b5b61337c89828a0161305c565b965050602087013567ffffffffffffffff81111561339d5761339c612c32565b5b6133a989828a0161305c565b95505060406133ba89828a01612dce565b945050606087013567ffffffffffffffff8111156133db576133da612c32565b5b6133e789828a0161305c565b935050608087013567ffffffffffffffff81111561340857613407612c32565b5b61341489828a0161305c565b92505060a087013567ffffffffffffffff81111561343557613434612c32565b5b61344189828a0161305c565b9150509295509295509295565b6000806040838503121561346557613464612c2d565b5b600061347385828601612e83565b925050602061348485828601612e83565b9150509250929050565b7f4e487b7100000000000000000000000000000000000000000000000000000000600052602260045260246000fd5b600060028204905060018216806134d557607f821691505b602082108114156134e9576134e861348e565b5b50919050565b7f4552433732313a20617070726f76656420717565727920666f72206e6f6e657860008201527f697374656e7420746f6b656e0000000000000000000000000000000000000000602082015250565b600061354b602c83612cfd565b9150613556826134ef565b604082019050919050565b6000602082019050818103600083015261357a8161353e565b9050919050565b7f4552433732313a20617070726f76616c20746f2063757272656e74206f776e6560008201527f7200000000000000000000000000000000000000000000000000000000000000602082015250565b60006135dd602183612cfd565b91506135e882613581565b604082019050919050565b6000602082019050818103600083015261360c816135d0565b9050919050565b7f4552433732313a20617070726f76652063616c6c6572206973206e6f74206f7760008201527f6e6572206e6f7220617070726f76656420666f7220616c6c0000000000000000602082015250565b600061366f603883612cfd565b915061367a82613613565b604082019050919050565b6000602082019050818103600083015261369e81613662565b9050919050565b7f517565727920666f72206e6f6e6578697374656e7420746f6b656e0000000000600082015250565b60006136db601b83612cfd565b91506136e6826136a5565b602082019050919050565b6000602082019050818103600083015261370a816136ce565b9050919050565b7f5175657269656420746f6b656e20686173206578706972656400000000000000600082015250565b6000613747601983612cfd565b915061375282613711565b602082019050919050565b600060208201905081810360008301526137768161373a565b9050919050565b7f4552433732313a207472616e736665722063616c6c6572206973206e6f74206f60008201527f776e6572206e6f7220617070726f766564000000000000000000000000000000602082015250565b60006137d9603183612cfd565b91506137e48261377d565b604082019050919050565b60006020820190508181036000830152613808816137cc565b9050919050565b7f455243373231456e756d657261626c653a206f776e657220696e646578206f7560008201527f74206f6620626f756e6473000000000000000000000000000000000000000000602082015250565b600061386b602b83612cfd565b91506138768261380f565b604082019050919050565b6000602082019050818103600083015261389a8161385e565b9050919050565b7f455243373231456e756d657261626c653a20676c6f62616c20696e646578206f60008201527f7574206f6620626f756e64730000000000000000000000000000000000000000602082015250565b60006138fd602c83612cfd565b9150613908826138a1565b604082019050919050565b6000602082019050818103600083015261392c816138f0565b9050919050565b7f4e487b7100000000000000000000000000000000000000000000000000000000600052603260045260246000fd5b7f4552433732313a206f776e657220717565727920666f72206e6f6e657869737460008201527f656e7420746f6b656e0000000000000000000000000000000000000000000000602082015250565b60006139be602983612cfd565b91506139c982613962565b604082019050919050565b600060208201905081810360008301526139ed816139b1565b9050919050565b7f4552433732313a2062616c616e636520717565727920666f7220746865207a6560008201527f726f206164647265737300000000000000000000000000000000000000000000602082015250565b6000613a50602a83612cfd565b9150613a5b826139f4565b604082019050919050565b60006020820190508181036000830152613a7f81613a43565b9050919050565b7f4f776e61626c653a2063616c6c6572206973206e6f7420746865206f776e6572600082015250565b6000613abc602083612cfd565b9150613ac782613a86565b602082019050919050565b60006020820190508181036000830152613aeb81613aaf565b9050919050565b600081905092915050565b7f7b226e616d65223a202200000000000000000000000000000000000000000000600082015250565b6000613b33600a83613af2565b9150613b3e82613afd565b600a82019050919050565b60008190508160005260206000209050919050565b60008154613b6b816134bd565b613b758186613af2565b94506001821660008114613b905760018114613ba157613bd4565b60ff19831686528186019350613bd4565b613baa85613b49565b60005b83811015613bcc57815481890152600182019150602081019050613bad565b838801955050505b50505092915050565b7f222c000000000000000000000000000000000000000000000000000000000000600082015250565b6000613c13600283613af2565b9150613c1e82613bdd565b600282019050919050565b7f22696d616765223a202200000000000000000000000000000000000000000000600082015250565b6000613c5f600a83613af2565b9150613c6a82613c29565b600a82019050919050565b7f226465736372697074696f6e223a202200000000000000000000000000000000600082015250565b6000613cab601083613af2565b9150613cb682613c75565b601082019050919050565b7f2261747472696275746573223a205b7b2274726169745f74797065223a20225060008201527f72696d61727920436f6c6f72222c202276616c7565223a202200000000000000602082015250565b6000613d1d603983613af2565b9150613d2882613cc1565b603982019050919050565b7f227d2c0000000000000000000000000000000000000000000000000000000000600082015250565b6000613d69600383613af2565b9150613d7482613d33565b600382019050919050565b7f7b2274726169745f74797065223a20225365636f6e6461727920436f6c6f722260008201527f2c202276616c7565223a20220000000000000000000000000000000000000000602082015250565b6000613ddb602c83613af2565b9150613de682613d7f565b602c82019050919050565b7f7b2274726169745f74797065223a202245787069726174696f6e2054696d652260008201527f2c202276616c7565223a20000000000000000000000000000000000000000000602082015250565b6000613e4d602b83613af2565b9150613e5882613df1565b602b82019050919050565b6000613e6e82612cf2565b613e788185613af2565b9350613e88818560208601612d0e565b80840191505092915050565b7f7d5d7d0000000000000000000000000000000000000000000000000000000000600082015250565b6000613eca600383613af2565b9150613ed582613e94565b600382019050919050565b6000613eeb82613b26565b9150613ef78289613b5e565b9150613f0282613c06565b9150613f0d82613c52565b9150613f198288613b5e565b9150613f2482613c06565b9150613f2f82613c9e565b9150613f3b8287613b5e565b9150613f4682613c06565b9150613f5182613d10565b9150613f5d8286613b5e565b9150613f6882613d5c565b9150613f7382613dce565b9150613f7f8285613b5e565b9150613f8a82613d5c565b9150613f9582613e40565b9150613fa18284613e63565b9150613fac82613ebd565b9150819050979650505050505050565b7f646174613a6170706c69636174696f6e2f6a736f6e3b6261736536342c000000600082015250565b6000613ff2601d83613af2565b9150613ffd82613fbc565b601d82019050919050565b600061401382613fe5565b915061401f8284613e63565b915081905092915050565b7f4e487b7100000000000000000000000000000000000000000000000000000000600052601160045260246000fd5b600061406482612dad565b915061406f83612dad565b9250827fffffffffffffffffffffffffffffffffffffffffffffffffffffffffffffffff038211156140a4576140a361402a565b5b828201905092915050565b7f4f776e61626c653a206e6577206f776e657220697320746865207a65726f206160008201527f6464726573730000000000000000000000000000000000000000000000000000602082015250565b600061410b602683612cfd565b9150614116826140af565b604082019050919050565b6000602082019050818103600083015261413a816140fe565b9050919050565b600061414c82612dad565b915061415783612dad565b92508282101561416a5761416961402a565b5b828203905092915050565b7f4552433732313a206f70657261746f7220717565727920666f72206e6f6e657860008201527f697374656e7420746f6b656e0000000000000000000000000000000000000000602082015250565b60006141d1602c83612cfd565b91506141dc82614175565b604082019050919050565b60006020820190508181036000830152614200816141c4565b9050919050565b7f4552433732313a207472616e73666572206f6620746f6b656e2074686174206960008201527f73206e6f74206f776e0000000000000000000000000000000000000000000000602082015250565b6000614263602983612cfd565b915061426e82614207565b604082019050919050565b6000602082019050818103600083015261429281614256565b9050919050565b7f4552433732313a207472616e7366657220746f20746865207a65726f2061646460008201527f7265737300000000000000000000000000000000000000000000000000000000602082015250565b60006142f5602483612cfd565b915061430082614299565b604082019050919050565b60006020820190508181036000830152614324816142e8565b9050919050565b7f4552433732313a20617070726f766520746f2063616c6c657200000000000000600082015250565b6000614361601983612cfd565b915061436c8261432b565b602082019050919050565b6000602082019050818103600083015261439081614354565b9050919050565b7f4552433732313a207472616e7366657220746f206e6f6e20455243373231526560008201527f63656976657220696d706c656d656e7465720000000000000000000000000000602082015250565b60006143f3603283612cfd565b91506143fe82614397565b604082019050919050565b60006020820190508181036000830152614422816143e6565b9050919050565b600061443482612dad565b91507fffffffffffffffffffffffffffffffffffffffffffffffffffffffffffffffff8214156144675761446661402a565b5b600182019050919050565b7f4e487b7100000000000000000000000000000000000000000000000000000000600052601260045260246000fd5b60006144ac82612dad565b91506144b783612dad565b9250826144c7576144c6614472565b5b828204905092915050565b60006144dd82612dad565b91506144e883612dad565b9250817fffffffffffffffffffffffffffffffffffffffffffffffffffffffffffffffff04831182151516156145215761452061402a565b5b828202905092915050565b600060ff82169050919050565b60006145448261452c565b915061454f8361452c565b92508260ff038211156145655761456461402a565b5b828201905092915050565b600081519050919050565b600082825260208201905092915050565b600061459782614570565b6145a1818561457b565b93506145b1818560208601612d0e565b6145ba81612d41565b840191505092915050565b60006080820190506145da6000830187612e42565b6145e76020830186612e42565b6145f46040830185612ed8565b8181036060830152614606818461458c565b905095945050505050565b60008151905061462081612c63565b92915050565b60006020828403121561463c5761463b612c2d565b5b600061464a84828501614611565b91505092915050565b7f4552433732313a206d696e7420746f20746865207a65726f2061646472657373600082015250565b6000614689602083612cfd565b915061469482614653565b602082019050919050565b600060208201905081810360008301526146b88161467c565b9050919050565b7f4552433732313a20746f6b656e20616c7265616479206d696e74656400000000600082015250565b60006146f5601c83612cfd565b9150614700826146bf565b602082019050919050565b60006020820190508181036000830152614724816146e8565b9050919050565b7f4e487b7100000000000000000000000000000000000000000000000000000000600052603160045260246000fdfe4142434445464748494a4b4c4d4e4f505152535455565758595a6162636465666768696a6b6c6d6e6f707172737475767778797a303132333435363738392b2fa264697066735822122072d7527c1e863c43c8bf90ad3283740e02ead4e2fb6b1c5f8ef747b6011e69b364736f6c634300080a0033",
  "immutableReferences": {},
  "source": "// SPDX-License-Identifier: MIT\r\npragma solidity ^0.8.7;\r\n\r\nimport \"@openzeppelin/contracts/token/ERC721/ERC721.sol\";\r\nimport \"@openzeppelin/contracts/token/ERC721/extensions/ERC721Enumerable.sol\";\r\nimport \"@openzeppelin/contracts/access/Ownable.sol\";\r\nimport \"@openzeppelin/contracts/utils/math/SafeMath.sol\";\r\n\r\nlibrary Base64 {\r\n    string internal constant TABLE_ENCODE =\r\n        \"ABCDEFGHIJKLMNOPQRSTUVWXYZabcdefghijklmnopqrstuvwxyz0123456789+/\";\r\n    bytes internal constant TABLE_DECODE =\r\n        hex\"0000000000000000000000000000000000000000000000000000000000000000\"\r\n        hex\"00000000000000000000003e0000003f3435363738393a3b3c3d000000000000\"\r\n        hex\"00000102030405060708090a0b0c0d0e0f101112131415161718190000000000\"\r\n        hex\"001a1b1c1d1e1f202122232425262728292a2b2c2d2e2f303132330000000000\";\r\n\r\n    function encode(bytes memory data) internal pure returns (string memory) {\r\n        if (data.length == 0) return \"\";\r\n\r\n        // load the table into memory\r\n        string memory table = TABLE_ENCODE;\r\n\r\n        // multiply by 4/3 rounded up\r\n        uint256 encodedLen = 4 * ((data.length + 2) / 3);\r\n\r\n        // add some extra buffer at the end required for the writing\r\n        string memory result = new string(encodedLen + 32);\r\n\r\n        assembly {\r\n            // set the actual output length\r\n            mstore(result, encodedLen)\r\n\r\n            // prepare the lookup table\r\n            let tablePtr := add(table, 1)\r\n\r\n            // input ptr\r\n            let dataPtr := data\r\n            let endPtr := add(dataPtr, mload(data))\r\n\r\n            // result ptr, jump over length\r\n            let resultPtr := add(result, 32)\r\n\r\n            // run over the input, 3 bytes at a time\r\n            for {\r\n\r\n            } lt(dataPtr, endPtr) {\r\n\r\n            } {\r\n                // read 3 bytes\r\n                dataPtr := add(dataPtr, 3)\r\n                let input := mload(dataPtr)\r\n\r\n                // write 4 characters\r\n                mstore8(\r\n                    resultPtr,\r\n                    mload(add(tablePtr, and(shr(18, input), 0x3F)))\r\n                )\r\n                resultPtr := add(resultPtr, 1)\r\n                mstore8(\r\n                    resultPtr,\r\n                    mload(add(tablePtr, and(shr(12, input), 0x3F)))\r\n                )\r\n                resultPtr := add(resultPtr, 1)\r\n                mstore8(\r\n                    resultPtr,\r\n                    mload(add(tablePtr, and(shr(6, input), 0x3F)))\r\n                )\r\n                resultPtr := add(resultPtr, 1)\r\n                mstore8(resultPtr, mload(add(tablePtr, and(input, 0x3F))))\r\n                resultPtr := add(resultPtr, 1)\r\n            }\r\n\r\n            // padding with '='\r\n            switch mod(mload(data), 3)\r\n            case 1 {\r\n                mstore(sub(resultPtr, 2), shl(240, 0x3d3d))\r\n            }\r\n            case 2 {\r\n                mstore(sub(resultPtr, 1), shl(248, 0x3d))\r\n            }\r\n        }\r\n\r\n        return result;\r\n    }\r\n\r\n    function decode(string memory _data) internal pure returns (bytes memory) {\r\n        bytes memory data = bytes(_data);\r\n\r\n        if (data.length == 0) return new bytes(0);\r\n        require(data.length % 4 == 0, \"invalid base64 decoder input\");\r\n\r\n        // load the table into memory\r\n        bytes memory table = TABLE_DECODE;\r\n\r\n        // every 4 characters represent 3 bytes\r\n        uint256 decodedLen = (data.length / 4) * 3;\r\n\r\n        // add some extra buffer at the end required for the writing\r\n        bytes memory result = new bytes(decodedLen + 32);\r\n\r\n        assembly {\r\n            // padding with '='\r\n            let lastBytes := mload(add(data, mload(data)))\r\n            if eq(and(lastBytes, 0xFF), 0x3d) {\r\n                decodedLen := sub(decodedLen, 1)\r\n                if eq(and(lastBytes, 0xFFFF), 0x3d3d) {\r\n                    decodedLen := sub(decodedLen, 1)\r\n                }\r\n            }\r\n\r\n            // set the actual output length\r\n            mstore(result, decodedLen)\r\n\r\n            // prepare the lookup table\r\n            let tablePtr := add(table, 1)\r\n\r\n            // input ptr\r\n            let dataPtr := data\r\n            let endPtr := add(dataPtr, mload(data))\r\n\r\n            // result ptr, jump over length\r\n            let resultPtr := add(result, 32)\r\n\r\n            // run over the input, 4 characters at a time\r\n            for {\r\n\r\n            } lt(dataPtr, endPtr) {\r\n\r\n            } {\r\n                // read 4 characters\r\n                dataPtr := add(dataPtr, 4)\r\n                let input := mload(dataPtr)\r\n\r\n                // write 3 bytes\r\n                let output := add(\r\n                    add(\r\n                        shl(\r\n                            18,\r\n                            and(\r\n                                mload(add(tablePtr, and(shr(24, input), 0xFF))),\r\n                                0xFF\r\n                            )\r\n                        ),\r\n                        shl(\r\n                            12,\r\n                            and(\r\n                                mload(add(tablePtr, and(shr(16, input), 0xFF))),\r\n                                0xFF\r\n                            )\r\n                        )\r\n                    ),\r\n                    add(\r\n                        shl(\r\n                            6,\r\n                            and(\r\n                                mload(add(tablePtr, and(shr(8, input), 0xFF))),\r\n                                0xFF\r\n                            )\r\n                        ),\r\n                        and(mload(add(tablePtr, and(input, 0xFF))), 0xFF)\r\n                    )\r\n                )\r\n                mstore(resultPtr, shl(232, output))\r\n                resultPtr := add(resultPtr, 3)\r\n            }\r\n        }\r\n\r\n        return result;\r\n    }\r\n}\r\n\r\ncontract ReNFT is ERC721, ERC721Enumerable, Ownable {\r\n    using SafeMath for uint256;\r\n\r\n    mapping(string => bool) private takenNames;\r\n    mapping(uint256 => Attr) public attributes;\r\n\r\n    struct Attr {\r\n        string name; //token name\r\n        string image; //image uri\r\n        uint256 exptime; //expiration timetstamp\r\n        string colorPrimary; //Primary colour hexadecimal\r\n        string colorSecondary; //Secondary color hexadecimal\r\n        uint256 mintTime; //time of token creation\r\n        string description; //description data of token\r\n    }\r\n\r\n    constructor() ERC721(\"ReNFT\", \"RENFT\") {}\r\n\r\n    function uint2str(uint256 _i)\r\n        internal\r\n        pure\r\n        returns (string memory _uintAsString)\r\n    {\r\n        if (_i == 0) {\r\n            return \"0\";\r\n        }\r\n        uint256 j = _i;\r\n        uint256 len;\r\n        while (j != 0) {\r\n            len++;\r\n            j /= 10;\r\n        }\r\n        bytes memory bstr = new bytes(len);\r\n        uint256 k = len;\r\n        while (_i != 0) {\r\n            k = k - 1;\r\n            uint8 temp = (48 + uint8(_i - (_i / 10) * 10));\r\n            bytes1 b1 = bytes1(temp);\r\n            bstr[k] = b1;\r\n            _i /= 10;\r\n        }\r\n        return string(bstr);\r\n    }\r\n\r\n    function getAge(uint256 tokenId) public view returns (uint256) {\r\n        require(_exists(tokenId), \"Query for nonexistent token\");\r\n        require(!isExpired(tokenId), \"Queried token has expired\");\r\n        return block.timestamp.sub(attributes[tokenId].mintTime);\r\n    }\r\n\r\n    function setcPrimary(uint256 tokenId, string memory _cPrimary) public {\r\n        require(_exists(tokenId), \"Query for nonexistent token\");\r\n        require(\r\n            _isApprovedOrOwner(_msgSender(), tokenId),\r\n            \"ERC721: transfer caller is not owner nor approved\"\r\n        );\r\n        require(!isExpired(tokenId), \"Queried token has expired\");\r\n        attributes[tokenId].colorPrimary = _cPrimary;\r\n    }\r\n\r\n    function setcSecondary(uint256 tokenId, string memory _cSecondary) public {\r\n        require(_exists(tokenId), \"Query for nonexistent token\");\r\n        require(\r\n            _isApprovedOrOwner(_msgSender(), tokenId),\r\n            \"ERC721: transfer caller is not owner nor approved\"\r\n        );\r\n        require(!isExpired(tokenId), \"Queried token has expired\");\r\n        attributes[tokenId].colorSecondary = _cSecondary;\r\n    }\r\n\r\n    function _beforeTokenTransfer(\r\n        address from,\r\n        address to,\r\n        uint256 tokenId\r\n    ) internal override(ERC721, ERC721Enumerable) {\r\n        super._beforeTokenTransfer(from, to, tokenId);\r\n    }\r\n\r\n    function _burn(uint256 tokenId) internal override(ERC721) {\r\n        super._burn(tokenId);\r\n    }\r\n\r\n    function supportsInterface(bytes4 interfaceId)\r\n        public\r\n        view\r\n        override(ERC721, ERC721Enumerable)\r\n        returns (bool)\r\n    {\r\n        return super.supportsInterface(interfaceId);\r\n    }\r\n\r\n    function mint(\r\n        string memory _name,\r\n        string memory _image,\r\n        uint256 _exptime,\r\n        string memory _cPrimary,\r\n        string memory _cSecondary,\r\n        string memory _desc\r\n    ) public {\r\n        uint256 tkid = totalSupply() + 1;\r\n        _safeMint(msg.sender, tkid);\r\n        attributes[tkid] = Attr(\r\n            _name,\r\n            _image,\r\n            _exptime,\r\n            _cPrimary,\r\n            _cSecondary,\r\n            block.timestamp,\r\n            _desc\r\n        );\r\n    }\r\n\r\n    function setImg(uint256 tokenId, string memory _image) public {\r\n        require(\r\n            _isApprovedOrOwner(_msgSender(), tokenId),\r\n            \"ERC721: transfer caller is not owner nor approved\"\r\n        );\r\n        require(_exists(tokenId), \"Query for nonexistent token\");\r\n        require(!isExpired(tokenId), \"Queried token has expired\");\r\n        attributes[tokenId].image = _image;\r\n    }\r\n\r\n    function tokenURI(uint256 tokenId)\r\n        public\r\n        view\r\n        override(ERC721)\r\n        returns (string memory)\r\n    {\r\n        require(!isExpired(tokenId), \"Queried token has expired\");\r\n        string memory json = Base64.encode(\r\n            bytes(\r\n                string(\r\n                    abi.encodePacked(\r\n                        '{\"name\": \"',\r\n                        attributes[tokenId].name,\r\n                        '\",',\r\n                        '\"image\": \"',\r\n                        attributes[tokenId].image,\r\n                        '\",',\r\n                        '\"description\": \"',\r\n                        attributes[tokenId].description,\r\n                        '\",',\r\n                        '\"attributes\": [{\"trait_type\": \"Primary Color\", \"value\": \"',\r\n                        attributes[tokenId].colorPrimary,\r\n                        '\"},',\r\n                        '{\"trait_type\": \"Secondary Color\", \"value\": \"',\r\n                        attributes[tokenId].colorSecondary,\r\n                        '\"},',\r\n                        '{\"trait_type\": \"Expiration Time\", \"value\": ',\r\n                        uint2str(attributes[tokenId].exptime),\r\n                        \"}]}\"\r\n                    )\r\n                )\r\n            )\r\n        );\r\n        return string(abi.encodePacked(\"data:application/json;base64,\", json));\r\n    }\r\n\r\n    function isExpired(uint256 tokenId) public view returns (bool) {\r\n        require(_exists(tokenId), \"Query for nonexistent token\");\r\n        if (\r\n            attributes[tokenId].exptime > uint256(block.timestamp) ||\r\n            attributes[tokenId].exptime == 0\r\n        ) return false;\r\n        else return true;\r\n    }\r\n}\r\n",
  "sourcePath": "D:\\Re-NFT\\contracts\\renft.sol",
  "compiler": {
    "name": "solc",
    "version": "0.8.10+commit.fc410830.Emscripten.clang"
  },
  "schemaVersion": "3.4.3",
  "updatedAt": "2021-12-26T09:20:58.985Z",
  "networkType": "ethereum",
  "devdoc": {
    "kind": "dev",
    "methods": {
      "approve(address,uint256)": {
        "details": "See {IERC721-approve}."
      },
      "balanceOf(address)": {
        "details": "See {IERC721-balanceOf}."
      },
      "getApproved(uint256)": {
        "details": "See {IERC721-getApproved}."
      },
      "isApprovedForAll(address,address)": {
        "details": "See {IERC721-isApprovedForAll}."
      },
      "name()": {
        "details": "See {IERC721Metadata-name}."
      },
      "owner()": {
        "details": "Returns the address of the current owner."
      },
      "ownerOf(uint256)": {
        "details": "See {IERC721-ownerOf}."
      },
      "renounceOwnership()": {
        "details": "Leaves the contract without owner. It will not be possible to call `onlyOwner` functions anymore. Can only be called by the current owner. NOTE: Renouncing ownership will leave the contract without an owner, thereby removing any functionality that is only available to the owner."
      },
      "safeTransferFrom(address,address,uint256)": {
        "details": "See {IERC721-safeTransferFrom}."
      },
      "safeTransferFrom(address,address,uint256,bytes)": {
        "details": "See {IERC721-safeTransferFrom}."
      },
      "setApprovalForAll(address,bool)": {
        "details": "See {IERC721-setApprovalForAll}."
      },
      "symbol()": {
        "details": "See {IERC721Metadata-symbol}."
      },
      "tokenByIndex(uint256)": {
        "details": "See {IERC721Enumerable-tokenByIndex}."
      },
      "tokenOfOwnerByIndex(address,uint256)": {
        "details": "See {IERC721Enumerable-tokenOfOwnerByIndex}."
      },
      "tokenURI(uint256)": {
        "details": "See {IERC721Metadata-tokenURI}."
      },
      "totalSupply()": {
        "details": "See {IERC721Enumerable-totalSupply}."
      },
      "transferFrom(address,address,uint256)": {
        "details": "See {IERC721-transferFrom}."
      },
      "transferOwnership(address)": {
        "details": "Transfers ownership of the contract to a new account (`newOwner`). Can only be called by the current owner."
      }
    },
    "version": 1
  },
  "userdoc": {
    "kind": "user",
    "methods": {},
    "version": 1
  }
}